:100000000C94A4040C94EB040C94EB040C94EB04FB
:100010000C94EB040C94EB040C94EB040C94EB04A4
:100020000C94EB040C94EB040C94512B0C94232CA7
:100030000C94CD210C94EB040C94EB040C94EB0485
:100040000C94EB040C94EB040C94EB040C94EB0474
:100050000C94EB040C9435220C94EB040C94EB04FC
:100060000C94EB040C94EB040C94EB040C94EB0454
:100070000C94EB040C94EB040C94EB040C94EB0444
:100080000C94EB040C94EB040C94EB040C94EB0434
:100090000C94EB040C94EB040C94EB040C94EB0424
:1000A0000C94EB040C94EB040C94EB042D172D171B
:1000B0005F175F17AC17CC172C192C190E18AB183B
:1000C000BC18BC181C192C192C192519AE19AE19FD
:1000D000C019C019B719C019C019C019AE19AE1985
:1000E000BC19C019C019BC1999258F25A725002650
:1000F00007260726002607260726C8250726D22515
:10010000DC250726072607260726002607260726BA
:1001100000260726B52507260726EC25EC25EC2525
:10012000EC25EC25EC25EC25EC25EC250226072614
:1001300099258C2507260726072607260726072642
:100140000726072607260726022607260726002653
:100150000726EA25EA25EA25EA25EA25EA25EA2509
:10016000EA25EA250226902CB72CA92DB72CA92D1B
:10017000032D262DA92D7C2D8B2D03E103E20002FA
:10018000E102E2002B0014001A000800150017001D
:100190001C0018000C00120013002A00015104007A
:1001A0001600070009000A000B000D000E000F00EA
:1001B00033003441E1001D001B000600190005005A
:1001C0001100100036003700380052004C00E000EB
:1001D000E2002800E300000000002C432D42500004
:1001E00051004F0029001E001F00200021002200A6
:1001F00023002400250026002700010001005000F4
:10020000520051004F0000002E0221002200230066
:100210002D002E0001003900000000000000000049
:1002200025021E001F0020003800015301000100BC
:10023000010001000100000000002C002700370031
:100240000000530035021E021F022002210222027A
:1002500023022402250226022702010035002F0274
:10026000300200000000000000002F0030000000FD
:10027000460000000100470048004900000000005F
:10028000000000000000AE00A900A800010001006D
:100290000100000001000000000001000100AC00AE
:1002A000AA00AB0000003A003B003C003D0000000B
:1002B0004A004B0052004E000000005C00003E006F
:1002C0003F004000410000004D00500051004F0031
:1002D000000000000100420043004400450000000F
:1002E000000000000000000000000000010001000C
:1002F00001000000010000000000010000000000FB
:10030000000004532B0014001A0008001500170009
:100310001C0000000C001200130000003500040057
:100320001600070009000A00190050005200510091
:100330004F000000E1001E001F00200022002300EB
:1003400024003A003B003C003D003E002100E0005C
:10035000E2002C00055100000000065106000500D7
:1003600000000000000014011A010801150100003E
:10037000000000000000000000000000000000007D
:100380000000000009010000000000000000000063
:100390000000000000001E011F01200121012201B8
:1003A0002301000000000000000000000000000029
:1003B0000000000001000000000000000601000035
:1003C0000000000000001E001F00200021000000AF
:1003D00000000000000000000000000000002200FB
:1003E00023002400000000000000000000000000C6
:1003F00000000000000000000000000000000000FD
:1004000000000000000000000000000000000000EC
:1004100000000000000000000000010000000000DB
:100420000000045100000000000000002A2B2800FA
:100430000000000000000000000000000000002993
:10044000000000002C1E3420212224342627252ED3
:10045000362D3738271E1F2021222324252633330B
:10046000362E37381F0405060708090A0B0C0D0E37
:100470000F101112131415161718191A1B1C1D2F03
:100480003130232D350405060708090A0B0C0D0E23
:100490000F101112131415161718191A1B1C1D2FE3
:1004A0003130354C0000000000000000000000006A
:1004B000000000000000000000000000000000003C
:1004C000000000000000000000000000000000002C
:1004D000000000000000000000000000000000001C
:1004E000000000000000000000000000000000000C
:1004F00000000000000000000000000000000000FC
:1005000000000000000000000000000000000000EB
:1005100000000000000000000000000000000000DB
:1005200000000000000000000000000000000000CB
:1005300000000000000000000000000000000000BB
:1005400000000000000101010101010001010101A1
:10055000000000000000000000000000000001009A
:10056000010001010101010101010101010101017C
:10057000010101010101010101010101010101006C
:100580000000010100000000000000000000000069
:10059000000000000000000000000000000000015A
:1005A0000101010000047F3F1F643214643214789B
:1005B0003C1E1E140A052223252628292A2C2D2F0D
:1005C0003032333536383A3B3D3E40424345474969
:1005D0004A4C4E5051535557595A5C5E606264669E
:1005E00068696B6D6F71737577797B7D7F818385AA
:1005F00087898A8C8E90929496989A9C9E9FA1A3AC
:10060000A5A7A8AAACAEAFB1B3B4B6B8B9BBBCBECF
:10061000BFC1C2C3C5C6C7C9CACBCCCDCED0D1D24B
:10062000D2D3D4D5D6D7D7D8D9D9DADADBDBDBDC4D
:10063000DCDCDCDCDDDDDDDDDCDCDCDCDCDBDBDBF9
:10064000DADAD9D9D8D7D7D6D5D4D3D2D2D1D0CE59
:10065000CDCCCBCAC9C7C6C5C3C2C1BFBEBCBBB95E
:10066000B8B6B4B3B1AFAEACAAA8A7A5A3A19F9EDC
:100670009C9A98969492908E8C8A89878583817FA4
:100680007D7B79777573716F6D6B69686664626085
:100690005E5C5A5957555351504E4C4A4947454351
:1006A00042403E3D3B3A3836353332302F2D2C2AEE
:1006B000292826252322FFAA7F5540000101010198
:1006C000010101010102020202020202020203030D
:1006D00003030303030304040404040404050505DD
:1006E000050506060606060707070707080808089F
:1006F000090909090A0A0A0B0B0B0C0C0C0D0D0D4C
:100700000E0E0E0F0F0F10101111111212131314E1
:1007100014151516161717181819191A1A1B1B1C59
:100720001D1D1E1E1F2020212222232424252626B3
:10073000272829292A2B2C2D2D2E2F3031323233E8
:100740003435363738393A3B3C3D3E3F40414243F1
:100750004445464748494A4C4D4E4F5051535455D5
:100760005658595A5B5D5E5F616264656668696B85
:100770006C6D6F7072737577787A7B7D7E80828303
:100780008587888A8C8E8F91939596989A9C9EA047
:10079000A2A3A5A7A9ABADAFB1B3B5B7BABCBEC054
:1007A000C2C4C6C9CBCDCFD1D4D6D8DBDDDFE2E41D
:1007B000E7E9EBEEF0F3F5F8FAFDFF040330000093
:1007C0000010034D0069006E006900560061006E64
:1007D0000000002203540068006500560061006EAE
:1007E0000020004B006500790062006F006100721C
:1007F000006400730000000403090409023B0002C6
:100800000100A032090400000103010100092111C7
:100810000100012240000705810308000A090401C4
:1008200000010300000009211101000122C000079E
:1008300005820320000A1201100100000008AEFE2C
:10084000478801000102030105010902A101850297
:100850000901A100050919012905150025019505C2
:100860007501810295017503810105010930093186
:100870001581257F95027508810609381581257F28
:10088000950175088106050C0A38021581257F95AA
:100890000175088106C0C005010980A10185031A00
:1008A00081002A830016010026030095017510813E
:1008B00000C0050C0901A10185041A01002A9C024F
:1008C000160100269C02950175108100C0050109E2
:1008D00006A1018505050719E029E7150025019501
:1008E00008750181020507190029EF1500250195FA
:1008F000F075018102050819012905950575019119
:1009000002950175039101C005010906A1010507C2
:1009100019E029E715002501950875018102950167
:10092000750881010507190029FF150026FF0095AC
:1009300006750881000508190129059505750191BD
:1009400002950175039101C011241FBECFEFDAE0BB
:10095000DEBFCDBF04B603FE27C080917002909128
:100960007102A0917202B09173028730904BA74040
:10097000B04BD1F410927002109271021092720278
:100980001092730214BE84B7877F84BF0FB6F894A9
:10099000A89580916000886180936000109260004B
:1009A0000FBEE0E0F8E3099511E0A0E0B1E0E8EF68
:1009B000FCE502C005900D92A236B107D9F722E0FE
:1009C000A2E6B1E001C01D92A037B207E1F70E9494
:1009D00073280C947A2E0C9400000C94BF0B0C948A
:1009E000C00B0C94F5040C945705CF93FB01C28106
:1009F000CC2349F088309D4579F48FE791E00E943F
:100A00002306C0E009C088309D4529F48AE791E0BB
:100A10000E94230601C0C1E08C2FCF9108950F934F
:100A20001F93CF93DF93162F042FC2E5D2E09E01D0
:100A300040E060E080E00E949F0D239682E0CB358D
:100A4000D807A9F722E532E044EB67E18AED0E947E
:100A50009F0D01FF07C025E532E04FEF68E680E219
:100A60000E949F0D14FF07C028E532E04DE76FEFAD
:100A70008AE00E949F0D11FF07C028E532E040E0A8
:100A800060E08FEF0E949F0DDF91CF911F910F913A
:100A90000C94100E0E94C813482F6091ED017091C4
:100AA000EE018091EF019091F0010C940F050E94EE
:100AB000C813482F6091ED017091EE018091EF0114
:100AC0009091F0010C940F05CF92DF92EF92FF927C
:100AD0006B017C010E94C813482FC701B6010E9418
:100AE0000F05C701B601FF90EF90DF90CF900895FA
:100AF00081E008951F93CF93DF9300D000D01F9221
:100B0000CDB7DEB749835A832091960189819A81B6
:100B1000211112C0662349F00E94FA1E182F682F77
:100B200089819A810E949F1E03C00E94CE1E182FA9
:100B300069817A81812F04C00E94FA1E69817A81BD
:100B40000F900F900F900F900F90DF91CF911F910A
:100B50000C941909FC014081518162817381848167
:100B60000C947A051F93CF93DF93282F30E0F9017F
:100B7000EC5DFB4F1491F901EC5DFA4FE491C1E09B
:100B8000E11101C0C0E0F901EC55FB4F2491D1E027
:100B9000211101C0D0E0CC2319F081EE0E9439155B
:100BA000DD2319F086EE0E943915812F0E94DA1696
:100BB000DD2319F086EE0E947216CC2331F081EE0F
:100BC000DF91CF911F910C947216DF91CF911F91FD
:100BD00008950F931F93CF93DF93EC01062FFE012F
:100BE0008491882359F19E012F5F3F4F813041F45A
:100BF000E901F9011491812F0E943915812F0DC04F
:100C0000823031F4E901F90184910E9439150AC05A
:100C1000833031F4E901F90184910E94721602C017
:100C20000E94B2052196802F8823C9F2EFE9FFE0E8
:100C30003197F1F700C000008150F6CFDF91CF91DE
:100C40001F910F91089560E00C94E9050E942A20FD
:100C5000811102C00E94CA200C94ED040C94EF0490
:100C600081E008950C943006CF93C82F0E94F304BE
:100C70008C2F0E943206CF91089508950E949E19EC
:100C80000E943D062FEF84E39CE02150804090407D
:100C9000E1F700C000000C945B220F931F93CF93E9
:100CA000DF938C010E94AA05EC01B8010E94F104B7
:100CB000882309F4B4C2B801CE010E9482138823AC
:100CC00009F4ADC2CB3CFCE5DF0741F4F8018281B9
:100CD000882309F4A4C20E94EE0DA1C2CC3C8CE58D
:100CE000D80708F0D7C1C33C9CE5D90761F4F801E7
:100CF0008281882309F493C20E947A1F8272F1F0E4
:100D00000E94EB118CC2C43CECE5DE07D0F0F80188
:100D10008281C73CFCE5DF0709F491C108F0A1C15D
:100D2000C53CECE5DE0709F490C108F094C18823C6
:100D300009F475C20E947A1F827211F30E94DE11BB
:100D40006EC2C631FCE5DF0708F042C1C2308CE557
:100D5000D80708F419C1F8018281882309F41BC15E
:100D60000E942A20811102C00E94CA200E943D20B8
:100D70009093620280936102C031FCE5DF0709F4C1
:100D8000C3C008F041C0C8309CE5D90709F49AC037
:100D9000F0F4C430FCE5DF0709F487C068F4C23022
:100DA0009CE5D90709F477C0C330DC4509F0E3C0FE
:100DB00080916102826076C0C630FCE5DF0709F4ED
:100DC0006EC008F07BC08091610288606BC0CC303F
:100DD0009CE5D90709F485C068F4CA30FCE5DF0753
:100DE00009F474C008F079C00E949E1980916102D4
:100DF000806858C0CE309CE5D90709F476C008F069
:100E00007FC0809161028BC0CB3FFCE5DF0709F416
:100E10004FC018F5C3319CE5D90709F47DC078F4BB
:100E2000C131FCE5DF0709F473C0C231DC4509F0CC
:100E3000A2C00E949E19809161028F7733C0C53194
:100E40009CE5D90709F472C008F486C0CA3FDC45A6
:100E500009F091C0809162023EC0CF3F8CE5D80777
:100E600009F45FC058F4CD3FECE5DE0709F444C057
:100E700008F43FC08091620282602DC0C1308DE5D0
:100E8000D80709F475C008F45DC0C230DD4509F02B
:100E900072C080E06EC080916102816003C0809169
:100EA000610280618093610266C08091610211C01D
:100EB000809162028260809362025DC080916102D3
:100EC0008062F0CF809161028064ECCF80916102FA
:100ED00088608460E7CF8160EECF809161028E7F71
:100EE000E1CF809161028D7FDDCF80916102877FAC
:100EF000D9CF8091620218C0809162028D7FDBCFD2
:100F0000809161028F7ECECF809161028F7DCACFAA
:100F1000809161028F7BC6CF80916102877F8B7F3A
:100F2000C1CF809162028D7F8E7FC5CF809161029B
:100F300082FB222720F991E0922790FB82F990FB17
:100F400083F9B0CF80916202982F909591708E7F37
:100F5000892B90FB81F9AFCF0E949E19809161028D
:100F600087FB222720F991E0922790FB87F99ACFFF
:100F700081E00E94CC2080916102909162020E94E7
:100F80004E200E949E194BC1C1159CE5D90751F016
:100F9000C130DC4579F0C801DF91CF911F910F91ED
:100FA0000C947805F8018281882309F438C10E94E5
:100FB0003E0635C1F8018281882309F430C1809151
:100FC0001A02982F909590FB80F980931A0227C1FE
:100FD000C631FCE5DF0739F50E947A1F282FF8019A
:100FE00082814091100150911101882379F02A7A71
:100FF00091E009F490E090936201911102C069E2DE
:1010000001C065E3CA010E9436210AC080916201D5
:10101000811102C069E201C065E3CA010E94412159
:101020000E94C61FFCC0C23CDC4509F0B4CFF801E9
:101030008281882309F4F3C00E94F911F0C088234B
:1010400009F4EDC00E94870FEAC0882309F4E7C0C5
:101050000E946B0FE4C0882309F4E1C00E94780F5E
:10106000DEC0C93C9CE5D90731F4882309F4D7C018
:101070000E94A50FD4C0CA3CDC4530F4882309F493
:10108000CEC00E94960FCBC0882309F4C8C00E942E
:10109000B40FC5C0C33DFCE5DF0749F4F801828108
:1010A000882309F4BCC088E10E94EE11B8C0C43D99
:1010B0008CE5D80708F069C0F8018281CF3CFCE5D7
:1010C000DF0771F4882309F4AAC00E94E60D863078
:1010D00028F00E94E60D883008F430CE86E0E4CF98
:1010E000C03D9CE5D90700F5CD3CECE5DE0729F4D1
:1010F000882309F494C081E0D7CFCE3CDC4530F49E
:10110000882309F48CC00E94FF0D89C0882309F44C
:1011100086C00E94E60D823028F00E94E60D8530E0
:1011200008F40CCE82E0C0CFC13D9CE5D90771F434
:10113000882309F474C00E94E60D8F3028F00E94C5
:10114000E60D843108F4FACD8FE0AECFC23DDC4528
:1011500070F4882309F463C00E94E60D893028F0FA
:101160000E94E60D8E3008F4E9CD89E09DCF8823FA
:1011700009F455C00E94E60D853128F00E94E60D65
:10118000873108F4DBCD85E18FCFCD3DFCE5DF076E
:1011900049F4F8018281882309F441C082E00E9469
:1011A00014293DC0CE3D8CE5D80738F5C53D9CE5FA
:1011B000D90731F4F8018281882389F183E274CF61
:1011C000C53DECE5DE0778F4F8018281882339F12A
:1011D0000E94E60D893128F00E94E60D823208F463
:1011E000ADCD89E161CFCC3DDC4509F0D4CEF8012D
:1011F00082818823A1F080E0D2CFCE3D8CE5D80754
:1012000039F4F8018281882351F00E94CA2007C076
:10121000CE018A5F9C45099708F49DCDBCCE80E045
:10122000DF91CF911F910F91089580E090E0089594
:1012300008959CE0799FF001112490E3899FE00DCF
:10124000F11D1124E60FF11DEE0FFF1FEC57FE4FAD
:10125000859194910895880F991FFC01EC55FA4FE0
:10126000859194910895CF93DF930E9419090E946C
:10127000E80AEC01811520E59207F0F5811530E4CC
:10128000930708F024C1883E910500F5803E910542
:1012900008F09AC1883A910570F4853A910508F0F2
:1012A0009FC08130910509F48FC108F440C10497B3
:1012B00008F08AC13CC18F3B910508F49CC0803C7A
:1012C000910508F434C1805C9109F4C0811540E2B5
:1012D000940758F4C11581E0D80708F075C1C03FE4
:1012E000D10508F424C1D0656FC1811520E39207B0
:1012F00008F0E4C09F70DEC0811535E5930708F063
:1013000044C0811544E5940708F0F8C0C11582E592
:10131000D80708F5C11521E5D20708F0DBC08C2FEE
:10132000837021E030E002C0220F331F8A95E2F77C
:101330003C68CE0174E0969587957A95E1F78370C5
:10134000382BCF70C695C69580E2C89FE001112466
:10135000C22BD32B39C12C2F26952695CE01837015
:101360009927C115D34508F0BAC040E2249F9001E7
:101370001124C1E0D0E002C0CC0FDD1F8A95E2F756
:101380002C2B3D2BE901DC681FC1811549E5940731
:10139000A0F4C11588E5D80708F0B5C0C11526E549
:1013A000D20708F0C4C08C2F0E947C0B8F71C82F0D
:1013B000D0E0DC2FCC27D06207C181153AE5930736
:1013C00008F4A6C090568115904208F0B0C08D2F49
:1013D0008F710E947C0BDD27D0628F71D82BF4C0F7
:1013E000853A910509F4A6C0863A910509F0A5C091
:1013F000C2E8D0E4E9C0883A910509F4A1C0893A6D
:10140000910509F4A0C08A3A910509F49FC08B3A6E
:10141000910509F49EC08C3A910509F49DC08B3B5F
:10142000910509F49CC08C3B910509F49BC08D3A51
:10143000910509F49AC0803B910509F499C08E3A50
:10144000910509F498C08F3A910509F497C0813B42
:10145000910509F496C0823B910509F495C0833B40
:10146000910509F494C0843B910509F493C0853B30
:10147000910509F492C0863B910509F491C0873B20
:10148000910509F490C0883B910509F48FC0893B10
:10149000910509F48EC08D3B910509F48DC08E3BFA
:1014A000910509F48CC08A3B910509F48BC0C0E01A
:1014B000D4E48AC00E942B09EC0186C09927D3FF8F
:1014C00003C0EC01D86C80C0EC01D06C7DC0DF7033
:1014D000D06A7AC0DC2FCC27C16FD06A75C040E2D9
:1014E000249F90011124C1E0D0E002C0CC0FDD1F89
:1014F0008A95E2F7C22BD32BDA6866C0D82FCC27A7
:10150000C46FD06A61C0DC2FCC27C06FD06A5CC0CA
:101510008F700E947C0B94E0D695C7959A95E1F761
:10152000CF70D0E0DC2FCC27D069C82B4DC0C0E0F5
:10153000D0E04AC0C1E8D0E447C0C3E8D0E444C02A
:10154000C2EED4E441C0C9EED4E43EC0CAEED4E455
:101550003BC0C5EBD4E438C0C6EBD4E435C0C3EB24
:10156000D4E432C0C4EBD4E42FC0C7EBD4E42CC025
:10157000CCECD4E429C0CDECD4E426C0C3E8D5E457
:1015800023C0CAE8D5E420C0C2E9D5E41DC0C4E93F
:10159000D5E41AC0C1E2D6E417C0C3E2D6E414C051
:1015A000C4E2D6E411C0C5E2D6E40EC0C6E2D6E479
:1015B0000BC0C7E2D6E408C0CFE6D4E405C0C0E75C
:1015C000D4E402C0CAE2D6E4CE01DF91CF910895FF
:1015D0008238910569F1B0F48133910509F46DC049
:1015E00048F48932910509F463C08A32910509F4FF
:1015F00069C008958533910509F455C08933910573
:10160000B9F00895833E910569F138F4803E910563
:10161000B1F0823E910509F10895863E9105A9F148
:10162000873E9105B9F1843E910509F064C023C05D
:101630002091610220FD4FC021FD4DC00895809191
:10164000610280FD44C08091620280FF44C08091AD
:10165000610284FD42C083EE4DC08091610282FF31
:1016600038C0F5CF8091610282FD33C08091620263
:1016700080FD31C0ECCF8091620281FF32C0809149
:10168000610284FD2AC087EE35C08091610283FF2C
:1016900026C0F5CF8091610283FD21C08091620256
:1016A00081FD1FC0ECCF8091610285FD1CC01DC073
:1016B0008091610285FD19C016C08091610286FD8E
:1016C00016C017C08091610286FD13C010C089E367
:1016D00011C082EE0FC080EE0DC080E00BC086EE20
:1016E00009C084EE07C089E205C085E303C08AE231
:1016F00001C081E390E008959091610292FF0DC0D6
:10170000282F2871283019F4877F846006C0282F7D
:101710002471243011F48B7F886093FF0DC0282F33
:101720002871283119F4877E846106C0282F24711E
:10173000243111F48B7E88612091620220FF0DC05C
:10174000382F3871383019F4877F816006C0382F00
:101750003171313011F48E7F886021FF0DC0282F48
:101760002871283119F4877E816106C0282F2171E4
:10177000213111F48E7E886194FD877E089508954D
:101780000895E82FF0E0EE0FFF1FED59FE4F808126
:10179000918108950895AFE2B1E041E050E024E086
:1017A0002A0F8D91E82FE295EF70F0E031A18F7054
:1017B000BA0102C0660F771F8A95E2F7CB01962F18
:1017C0009095932391A392A1892B82A32A13E9CF09
:1017D000A3E2B1E041E050E02CE02A0F8D91E82F28
:1017E000E295EF70F0E031A18F70BA0102C0660F90
:1017F000771F8A95E2F7CB01962F9095932391A3BB
:1018000092A1892B82A32A13E9CF10926C01109226
:101810006B01109264011092630110926E0110929C
:101820006D01109266011092650110927001109284
:101830006F0110926801109267011092720110926C
:10184000710110926A011092690184E00E94C10C3A
:101850000C9426065F926F927F928F929F92AF9226
:10186000BF92CF92DF92EF92FF920F931F93CF938D
:10187000DF930FE211E0ABE6B1E0612CEE24E394DC
:10188000F12C5D018D909C90119711961C921E92E7
:10189000E80189918E01E82FE295EF70F0E091A1C7
:1018A0008F70A70101C0440F8A95EAF7892F842B16
:1018B00081A382A1542E5094852182A3D0EADA9587
:1018C000F1F783E2C82E81E0D82E80E090E0E601B7
:1018D00079906E01272D22952F7030E0E90168A1E3
:1018E0002D913C91119770E0D72DDF7002C0759556
:1018F0006795DA95E2F760FD08C0B701082E02C0CF
:10190000660F771F0A94E2F702C060E070E0262BB2
:10191000372B11963C932E9301968C309105B9F696
:1019200081A1D52DD823D1A382A1482B42A3129601
:1019300081E0F501208131818216930609F480E06F
:10194000682AF1E0A337BF0709F09BCF262D44E0BA
:1019500063E671E08BE691E00E94C20C0E942E06C5
:10196000862DDF91CF911F910F91FF90EF90DF9027
:10197000CF90BF90AF909F908F907F906F905F902F
:1019800008950895FF920F931F93CF93DF93F82E3E
:10199000092F162FD72FC42F222349F081E08093DF
:1019A00075010E94FF2190937401809373018091CF
:1019B00075018823D9F080917301909174010E9480
:1019C0000B22069798F0EF2DF02FA12FBD2F80E06E
:1019D00090E04C2F50E08417950734F42191319119
:1019E0002D933D930196F7CF10927501DF91CF9122
:1019F0001F910F91FF900895AF92BF92CF92DF9207
:101A0000FF920F931F93CF93DF93D62E372FE82F9C
:101A1000F0E0711106C0E554F94F6491762F862FDE
:101A200075C0C72FD0E0E554F94F2491F22E022F54
:101A300010E046E0649FC0011124EFEFF0E0BF0129
:101A40000E94EB2DAB016BEA6403C001659F900D12
:101A500011248D0D911D8D0D911D982F990F890FBA
:101A6000DF01AC1BBD0B0A9FB0010B9F700D1A9FCD
:101A7000700D1124972F839FD0011124AB2FBB270A
:101A80006F01CA1ADB0A0C9DD0010D9DB00D1C9D83
:101A9000B00D11245F01A81AB108AC9E6001AD9E83
:101AA000D00CBC9ED00C1124CD2DDD27EC1BFD0BE2
:101AB0000E9FE0010F9FD00D1E9FD00D1124ED2F22
:101AC0004230510591F04CF441155105E1F041309F
:101AD0005105B9F4E22F2B2F16C04430510569F09F
:101AE00044F04630510579F00CC0E22F272F9D2F8E
:101AF0000AC0272F9F2DEB2F06C0E72F922F2D2FE7
:101B000002C0E72F9B2F6E2F722F892FDF91CF916D
:101B10001F910F91FF90DF90CF90BF90AF900895ED
:101B20000895CF93DF93762FE901682F842F0E94C9
:101B3000FC0C798368838A83DF91CF910895F90142
:101B4000818360834283089580914D02282F2695DA
:101B500030E02115310519F48170826005C025320D
:101B6000310524F08170886480934D02089588E0E7
:101B700090E00C943A2ECF93DF9300D000D0CDB7F5
:101B8000DEB7AB01BC0149835A836B837C830E941F
:101B9000A40D49815A816B817C8188E090E00F908F
:101BA0000F900F900F90DF91CF910C94582EEDE491
:101BB000F2E083E0808311828FEF8283838314823B
:101BC00060817181828193810C94BB0D80914D0263
:101BD00080FF02C08695089580E0089580915102AB
:101BE000833018F48F5F8093510260914D027091A1
:101BF0004E0280914F02909150020C94BB0D809147
:101C00005102882319F081508093510260914D0256
:101C100070914E0280914F02909150020C94BB0D36
:101C20006091040170E080914D0280FF0AC08091B4
:101C30007A0123E0829FC00111248E5A9D4F0C949B
:101C400012138091790190910301891780F7E82F91
:101C5000F0E09F01220F331FE20FF31FEE5AFD4FFA
:101C60001182108212828F5FF0CF90914D0290FF0F
:101C700016C09091790120910301921770F4E92F19
:101C8000F0E0DF01AA0FBB1FEA0FFB1FEE5AFD4F6A
:101C90008183608342839F5FF0CF0C94100E089580
:101CA000CF93DF9300D01F92CDB7DEB790914D0256
:101CB00090FF0AC09E012F5F3F4F0E94910D4B8104
:101CC00069818A810E94350E0F900F900F90DF91ED
:101CD000CF910895CF93DF93EC01EC81F0E0EA54CB
:101CE000FA4F4491EDE4F2E0628181810E94500E4E
:101CF0008C818F5F8C83DF91CF910895CF93DF9399
:101D0000EC01EDE4F2E0438162818C810E94500E8F
:101D10008C818F5F8C83DF91CF9108950F931F93F8
:101D2000CF93DF9300D01F92CDB7DEB78C018091A7
:101D3000760181110AC09E012F5F3F4F4FEF6FEF79
:101D40000E94910D8A8180937601F801848181300F
:101D500051F028F0823061F4409176010AC0809100
:101D6000760140E007C06091760140E080E003C06A
:101D700040E080E060E00E94350EF801248130E010
:101D8000C901019663E070E00E94FF2D84830F90EB
:101D90000F900F90DF91CF911F910F910895AF9207
:101DA000BF92CF92DF92EF92FF920F931F93CF9348
:101DB000DF9300D01F92CDB7DEB7182FF62E042F79
:101DC000E22E90914D0290FF6EC0E92FE695AE2F66
:101DD000B0E0AD5CBE4F8C91809382019E7F9230CB
:101DE00061F49E012F5F3F4F812F0E94910D4B8127
:101DF00069818A810E94350E44C0823019F40091B5
:101E000050023FC0863019F410914E023AC089301A
:101E1000D9F38931B1F5E9518E2F8170D82EE6952D
:101E2000F0E0EA54F94FA590B490C12CBB24609126
:101E30000201C61620F5EC2DF0E0EA9DC001EB9DF5
:101E4000900DFA9D900D112470E00E94EB2D812FD2
:101E5000D11002C0860F01C0861B90917901E90F55
:101E6000F11D9F01220F331FE20FF31F9F012E5A16
:101E70003D4F402F6F2D0E94910DC394D8CF0E94EB
:101E8000100E10934E02F0924F0200935002EE207B
:101E900051F060914D0270914E0280914F029091ED
:101EA00050020E94BB0D0F900F900F90DF91CF91C9
:101EB0001F910F91FF90EF90DF90CF90BF90AF9068
:101EC0000895EDE4F2E09181282F4381628188E05A
:101ED000890F0C94CF0E81E00C94610FEDE4F2E0D9
:101EE0009181282F4381628188EF890F0C94CF0E56
:101EF00081E00C946E0FEDE4F2E0628121E1620F6B
:101F000008F46FEF282F438181810C94CF0E81E07C
:101F10000C947B0FEDE4F2E0628121E1621B08F496
:101F200060E0282F438181810C94CF0E81E00C94D6
:101F30008A0FEDE4F2E0438121E1420F08F44FEF14
:101F4000282F628181810C94CF0E81E00C94990F2F
:101F5000EDE4F2E0438121E1421B08F440E0282F48
:101F6000628181810C94CF0E81E00C94A80F20E057
:101F70000C94CF0EFF920F931F93CF93DF93EC013E
:101F8000F12C0FEF10E060910201F616E8F42091B9
:101F9000790130E02F0D311DC901880F991F280FDD
:101FA000391F2E5A3D4F70E0C8010E94FF2D962F19
:101FB0008C814091500260914F02F99E800D112456
:101FC0000E94910DF394DFCF0E94100E9A818C81B4
:101FD00090FF02C08F5F01C081508C83DF91CF9151
:101FE0001F910F91FF900895AF92BF92CF92DF9211
:101FF000EF92FF920F931F93CF93DF93FC018281A7
:1020000080FF02C00FEF01C001E010E043E0A42E0A
:1020100080910201181708F043C0C12ED12C809185
:102020007901E601C80FD11DCE01880F991FC80F95
:10203000D91FCE5ADD4F198218821A8234E0E32E5E
:10204000F12CB12C809178018B0D84302CF06A2D0D
:102050000E94DD2D892F05C087FF03C090910201EA
:10206000890F082E000C990BC816D90691F480919F
:1020700050028E9DA0018F9D500D112455954795BE
:10208000559547959E0160914F0280914E020E94A6
:10209000910DB00EF1E0EF1AF108A1F61F5FB8CF75
:1020A0000E94100E80917801013031F4811102C03C
:1020B00080910201815007C090E001966091020179
:1020C00070E00E94FF2D80937801DF91CF911F91E6
:1020D0000F91FF90EF90DF90CF90BF90AF90089559
:1020E000CF938091790190910301891770F4E82FC3
:1020F000F0E09F01220F331FE20FF31FEE5AFD4F56
:102100001182108212828F5FF0CFC0E060910201D5
:10211000C617B8F5EC2FF0E070E0CF010E94FF2D5C
:1021200040917901480F80917701082E000C990B9E
:1021300050E0E817F907C4F020910101022E000CCD
:10214000330B2E173F0784F09A01220F331F240F01
:10215000351F2E5A3D4F4091500260914F028091A1
:102160004E020E94910D0BC0FA01EE0FFF1F4E0FA1
:102170005F1FFA01EE5AFD4F118210821282CF5F6B
:10218000C5CF0E94100E2091000180917701820F2F
:102190008093770190910101920F9093010119169C
:1021A0005CF4082E000C990B4091020150E0415064
:1021B0005109841795071CF0219520930001CF91B8
:1021C00008950F931F93CF93DF938C01FC018481BB
:1021D000958101968170992795838483C0E0D5E528
:1021E00080910201C817F8F42091790130E02C0F9A
:1021F000311DC901880F991F280F391F2E5A3D4FD5
:102200004C2F4695F80184819581840F911D817032
:102210004091500260914F028D9F802D11240E94A9
:10222000910DCF5FDDCFDF91CF911F910F910C9476
:10223000100E0F931F93CF93DF93EC0100E010E09B
:1022400080910201282F30E00217130724F59091A6
:1022500079019801290F311DA901440F551F240F41
:10226000351F2E5A3D4F869590E04C81081719076F
:102270001CF4442331F002C0411103C040915002CC
:1022800001C040E060914F0280914E020E94910D8A
:102290000F5F1F4FD5CF0E94100E2C8130E02F5FB3
:1022A0003F4F217033272C83DF91CF911F910F91E6
:1022B0000895EDE4F2E080818E7F808360817181FA
:1022C000828193810E94BB0D109283012FEF80E7E2
:1022D00092E0215080409040E1F700C000000C9453
:1022E000100EEDE4F2E080818E7F808310928301F6
:1022F0002FEF80E792E0215080409040E1F700C04E
:1023000000000C94100E60914D02669570E04BE059
:1023100050E085E091E00E94252E892B19F481E0A0
:10232000809383010E94FF2190937C0180937B0125
:10233000089590914D0290FF35C09170811102C0B7
:10234000926006C0853210F0986402C0880F982B06
:1023500090934D02662351F060914D0270914E02B0
:1023600080914F02909150020E94BB0D60914D02EE
:10237000669570E04BE050E085E091E00E94252EEC
:10238000892B19F01092830102C00E94831181E011
:1023900080937E014091500260914F0280914E02E5
:1023A0000C94B70F0895682F90914D02969581E097
:1023B000890F853208F081E00C94991181E00C942A
:1023C000D311682F90914D0296958FEF890F09F4E4
:1023D00084E20C94991181E00C94E11161E00C9479
:1023E0009911EDE4F2E080818160808386950C9400
:1023F000EE1180914D0280FD0C9459110C94F11155
:1024000060E00C94991180918101811133C0809119
:102410001A02816080931A020E942A20811104C04E
:102420000E94CA200E94D70D0E94B70D60934D02F2
:1024300070934E0280934F02909350026E7F61F42E
:102440000E94D70D0E94B70D60934D0270934E020B
:1024500080934F02909350020E94A40D109283012A
:1024600080914D0280FF03C086950E94001281E09A
:10247000809381010895EDE4F2E0808181608083A2
:1024800086950C9400121092830108950F931F9368
:10249000CF93DF9380918301882309F48CC08091CE
:1024A0008201E0914D02E695E81BE0937D018230C8
:1024B00049F4F0E0EE54FA4FE491CE2FD0E00AE672
:1024C0001EE049C0863049F4F0E0E155FA4FE4914E
:1024D000CE2FD0E00EE71EE03EC0893051F4E695E5
:1024E000F0E0E455FA4FE491CE2FD0E00AEB1FE084
:1024F00032C08F3051F4E695F0E0E755FA4FE491A1
:10250000CE2FD0E004EF1FE026C0853149F4F0E083
:10251000EA55FA4FE491CE2FD0E000E710E11BC05E
:10252000883181F0833239F4E4EAF5E0C591D49141
:102530000EE81EE010C0843251F4C4EFD1E009E18E
:1025400011E109C0C8EED3E001EE10E104C0C0ED16
:10255000D7E000E91DE080917E01882389F0109288
:102560007E010E94FF219E0120953095820F931FCE
:1025700090937C0180937B011092800110927F01E7
:1025800080917B0190917C010E940B228C179D070A
:1025900090F0E0917B01F0917C01CE0FDF1FD09392
:1025A0007C01C0937B018BE791E0F801DF91CF9133
:1025B0001F910F910994DF91CF911F910F91089571
:1025C0002BB1342F309523233BB1432B3FB7F894E5
:1025D000FC01680F791FE617F70789F0819198E0F1
:1025E0004BB9000000C087FF2BB9880F000000C066
:1025F00000C000C02BB900C09A9591F7ECCF3FBF47
:1026000008952AB1242B2AB99B01220F331F620F90
:10261000731F0E94E01287EC90E00197F1F700C071
:102620000000089541E00C9401130F931F93CF9382
:10263000DF93C62FD42F022FFC0182818823C9F09B
:10264000609386010E94FF2190938501809384010D
:1026500080E28C0F883008F050C0C77081E001C064
:10266000880FCA95EAF7DF91CF911F910F910C94D3
:10267000ED1610918601161330C08091840190915F
:1026800085010E940B228F3A910538F5C0E2CD0FEB
:102690001D17B9F080E2810F883040F4177081E097
:1026A00001C0880F1A95EAF70E94F416C83048F462
:1026B00081E09D2F977001C0880F9A95EAF70E94DC
:1026C000ED16802F0E94DA16C830B8F4D77081E07A
:1026D00001C0880FDA95EAF70AC080E28C0F8830D3
:1026E00060F4C77081E001C0880FCA95EAF7DF91F6
:1026F000CF911F910F910C94F416DF91CF911F9100
:102700000F9108959C01CB01233F4CE53407F9F06C
:1027100078F4283DFCE53F07B9F0293D4CE5340746
:1027200011F1273D3C4531F526E241EE61EE1EC038
:10273000253FFCE53F0799F070F0263F3C45D1F47A
:1027400027E245EE66EE12C027E245EE0EC026E215
:1027500041EE60EE0BC027E245EE64EE07C026E2D4
:1027600041EE62EE03C028E241E065EE0E941513DF
:1027700080E00895FC018281882319F0109286017F
:10278000089581E0089590938C0180938B010895C2
:10279000E0918B01F0918C01309721F00190F08154
:1027A000E02D099480E00895E0918B01F0918C0177
:1027B000309799F020912201222359F02091610253
:1027C00027FF07C0DC012C9111962C93119725E06F
:1027D0002C930280F381E02D09940895E0918B0100
:1027E000F0918C01309739F022E0DC012C930480C9
:1027F000F581E02D099408952091890130918A0195
:102800008217930771F090938A0180938901E09178
:102810008B01F0918C01309721F00680F781E02D3B
:1028200009940895209187013091880182179307B8
:1028300071F09093880180938701E0918B01F09172
:102840008C01309721F00084F185E02D09940895E2
:1028500085B7806885BF85B7806885BF089508956E
:1028600008950C9430140C944A050E9428140E9478
:102870002F140C94311481E008950E94F6210E94D7
:10288000CB0B0E947F220E9403120C9433144F92B0
:102890005F927F928F929F92AF92BF92CF92DF9280
:1028A000EF92FF920F931F93CF93DF93CDB7DEB7D5
:1028B0002A970FB6F894DEBF0FBECDBF0E942A0C38
:1028C0000E943B14811111C08FEF89838A831B8280
:1028D0000E94FF218160782F9D838C8349815A81DA
:1028E0006B818D810E94051557C09EE8C92E91E02D
:1028F000D92E00E010E0AA24A394B12C702E802FD2
:102900000E94C10B4C01F601419051906F01482685
:1029100059264114510431F40F5F1F4F0430110543
:1029200069F7D2CF80911A0281FD0E94CA0B20E084
:1029300030E07501022E02C0EE0CFF1C0A94E2F793
:10294000C70184219521892B09F12E837F828E2056
:102950009F2091E0892809F490E098870E94FF2148
:102960008160782F9A8789874E815F8168858A8503
:102970000E940515000F111FF801E257FE4F8081DC
:102980009181E826F926F182E08206C02F5F3F4F51
:102990002C30310571F6C0CF0E94112410918D01A9
:1029A0000E94C8131817D9F00E94C81380938D0194
:1029B0002A960FB6F894DEBF0FBECDBFDF91CF9140
:1029C0001F910F91FF90EF90DF90CF90BF90AF904D
:1029D0009F908F907F905F904F900C9434062A9632
:1029E0000FB6F894DEBF0FBECDBFDF91CF911F9120
:1029F0000F91FF90EF90DF90CF90BF90AF909F909E
:102A00008F907F905F904F900895CF93DF93CDB7D5
:102A1000DEB72B970FB6F894DEBF0FBECDBF4F8346
:102A2000588769877A878B87DE01119686E0FD01DA
:102A300011928A95E9F785E0FE01379601900D9293
:102A40008A95E1F749815A816B817C818D819E81D4
:102A50000E94701C2B960FB6F894DEBF0FBECDBF40
:102A6000DF91CF910895FC01808191810E943B1FED
:102A70000895CF93DF931F92CDB7DEB7882309F473
:102A80002DC1682F8238C1F40E94C81381FD26C170
:102A900069E380911001909111010E9436210E94FA
:102AA000C61F2FEF81EE94E0215080409040E1F767
:102AB00000C0000069E319C0833811F50E94C813F3
:102AC00080FD0CC163E580911001909111010E947D
:102AD00036210E94C61F2FEF81EE94E021508040E6
:102AE0009040E1F700C0000063E5809110019091F3
:102AF00011010E9441210F90DF91CF910C94C61FCC
:102B00008438C1F40E94C81382FDE8C067E4809154
:102B10001001909111010E9436210E94C61F2FEFD3
:102B200081EE94E0215080409040E1F700C0000029
:102B300067E4DBCF8CEF860F813A70F4862F6983D0
:102B40000E941A2669818111C9C08091100190915B
:102B500011010E943621CFCF80E2860F883048F4E1
:102B6000677081E001C0880F6A95EAF70E947D1FB7
:102B7000C2CF8BE5860F833088F4653A29F0663A38
:102B800031F083E890E005C081E890E002C082E87F
:102B900090E00F90DF91CF910C94FC1388E5860FA5
:102BA000873108F091C0683A09F445C0693A09F4E0
:102BB00045C06A3A09F445C06B3A09F445C06C3A1D
:102BC00009F445C06B3B09F445C06C3B09F445C0B2
:102BD0006D3A09F445C0603B09F445C06E3A09F40A
:102BE00045C06F3A09F445C0613B09F445C0623BFA
:102BF00009F445C0633B09F445C0643B09F445C092
:102C0000653B09F445C0663B09F445C0673B09F4E0
:102C100045C0683B09F445C0693B09F445C06D3BBC
:102C200009F445C06E3B09F445C06A3B09F445C050
:102C300080E090E044C082EE90E041C089EE90E0F8
:102C40003EC08AEE90E03BC085EB90E038C086EB5A
:102C500090E035C083EB90E032C084EB90E02FC071
:102C600087EB90E02CC08CEC90E029C08DEC90E0DC
:102C700026C083E891E023C08AE891E020C082E981
:102C800091E01DC084E991E01AC081E292E017C092
:102C900083E292E014C084E292E011C085E292E007
:102CA0000EC086E292E00BC087E292E008C08FE699
:102CB00090E005C080E790E002C08AE292E00F90C9
:102CC000DF91CF910C941214603F40F0862F0E9448
:102CD00019230F90DF91CF910C9406240F90DF9170
:102CE000CF910895882309F464C0823879F40E9452
:102CF000C81381FF5EC069E38091100190911101BA
:102D00000E9436210E94C61F69E310C08338B1F4C7
:102D10000E94C81380FF4DC063E58091100190911F
:102D200011010E9436210E94C61F63E580911001A7
:102D3000909111010E9441210C94C61F843879F4AE
:102D40000E94C81382FF35C067E480911001909102
:102D500011010E9436210E94C61F67E4E7CF9CEF55
:102D6000980F913A10F4682FE1CF90E2980F9830C5
:102D700050F4877091E001C0990F8A95EAF7892F86
:102D80000E94831FD9CF9BE5980F933020F480E0F9
:102D900090E00C94FC1398E5980F973120F480E0B4
:102DA00090E00C941214803F20F00E9481230C9438
:102DB00006240895CF93C82F0E943915C93349F4CA
:102DC0002FEF87EE93E0215080409040E1F700C064
:102DD00000008C2FCF910C947216882321F00E9452
:102DE0007D1F0C94C61F0895882321F00E94831F25
:102DF0000C94C61F0895BF92CF92DF92EF92FF927C
:102E00000F931F93CF93DF937C01062FC72FFC01F5
:102E1000158112951F70D281D1110E949A1F0E94B4
:102E2000731F882379F0DD2369F080E2800F8830FA
:102E300048F082E00E9411200E94731F91E0B82E9A
:102E4000B92601C0B12CCC2EC2948FE0C822D12C5F
:102E5000F601EA5AFF4F0C94132E8C2F807FCF700F
:102E6000882311F0C295C07FDD2399F0CC2309F4AB
:102E7000CEC180E2800F883010F0011104C08C2F89
:102E80000E947D1F03C08C2F0E948D1F0E94C61FB1
:102E9000BEC1802F0E947216CC2309F4DDC180E2EE
:102EA000800F883010F0011104C08C2F0E94831F06
:102EB00003C08C2F0E94931F0E94C61FCDC18C2F70
:102EC000807FCF70803211F0C295C07F002319F04F
:102ED0000130C9F022C0DD2371F0112341F011301F
:102EE00031F40E94AD1F8C2B0E94B31FB5C10E940C
:102EF000AD1F8C2B1DC0112319F0113009F4ACC18A
:102F00000E94BC1F25C0DD2321F0163008F0A4C1AB
:102F10000EC0153008F0A0C11BC0DD2361F01123E5
:102F200031F0F701858180FF72C18F7085838C2F0E
:102F30000E94ED1691C1112359F0093309F078C1AF
:102F4000FFEF27EE83E0F15020408040E1F76EC1B3
:102F50008C2F0E94F41680C18C2F869586958370E5
:102F600090E0009719F0019761F076C1DD2321F020
:102F7000802F9C2F937002C080E090E00E94FC1391
:102F800076C1DD2321F0802F9C2F937002C080E05A
:102F900090E00E9412146BC1DD23F9F0053F51F05F
:102FA000063F71F0043FA9F480915B0290915C02AE
:102FB00081600BC080915B0290915C02826005C0D1
:102FC00080915B0290915C02846090935C0280939C
:102FD0005B02802F0E9419231EC0053F51F0063F5F
:102FE00071F0043FA9F480915B0290915C028E7FA6
:102FF0000BC080915B0290915C028D7F05C0809137
:103000005B0290915C028B7F90935C0280935B02E9
:10301000802F0E9481230E94062429C18C2F837057
:1030200009F049C0D1111FC1402F42954695477004
:10303000440F440F602F6F70862F90E0A0E0B0E047
:10304000042E04C0880F991FAA1FBB1F0A94D2F731
:1030500004FF10C00FE010E020E030E004C0000FDB
:10306000111F221F331F4A95D2F700951095209506
:10307000309503C000E010E09801C695C695C37076
:10308000D0E0BC01CD01602B712B822B932BC23081
:10309000D10559F0C330D10559F0219719F00E949C
:1030A000B51DE1C00E94A31DDEC00E94C71DDBC08C
:1030B0000E94A11DD8C0DD2319F08C2F817001C0A2
:1030C0008695882309F4CFC0402F429546954770D6
:1030D000440F440F602F6F70862F90E0A0E0B0E0A7
:1030E000042E04C0880F991FAA1FBB1F0A94D2F791
:1030F00004FF10C00FE010E020E030E004C0000F3B
:10310000111F221F331F4A95D2F700951095209565
:10311000309503C000E010E09801C695C695C370D5
:10312000D0E0BC01CD01602B712B822B932BC230E0
:10313000D10559F0C330D10559F0219719F00E94FB
:103140007A1E91C00E94681E8EC00E948C1E8BC089
:103150000E94DB1D88C0CF70DD2339F08C2F0E94C8
:10316000011E802F0E94ED167EC0802F0E94F41653
:103170008C2F0E94221E77C0023F01F128F4003FED
:1031800041F0013FA1F03FC0033FF9F0043F39F1A6
:103190003AC0DD2341F0153008F05EC08C2F8F71EE
:1031A0000E94471E59C0163008F056C0F7CFDD23E5
:1031B00039F08C2F8F710E94011E4EC0DD23C9F3A0
:1031C0008C2F8F710E94221E47C0DD2329F08C2F87
:1031D0008F710E94EC1D40C00E94E71D3DC0DD23A1
:1031E00049F0CF718C2F0E94011E63E08C2F0E944A
:1031F000FC1F32C081E00E941120123068F182E091
:103200000E94112029C0DD2331F0112391F2802F7B
:103210000E94391521C0112399F2093349F49FEF17
:10322000E7EEF3E09150E040F040E1F700C000002D
:10323000802F0E94721610C04C2F4F70602FC70154
:103240000E9415090E94141D12C04C2F4F70602F50
:10325000C7010E9418090BC028E0C21AD10884E0F7
:10326000C816D10420F40E94C8130E943406BB2063
:10327000D1F00E946F1F80FD16C0F70112820E94DC
:10328000691F0E94011EC7010E945D190E94691FEB
:10329000DF91CF911F910F91FF90EF90DF90CF9032
:1032A000BF900C94221EDF91CF911F910F91FF9040
:1032B000EF90DF90CF90BF9008950F931F93CF931F
:1032C000DF93EC01888199812B813C81232BB9F01C
:1032D0009F3F11F48F3F99F0CE010E944D06882345
:1032E00071F0688179818A810E94461F8C010E9459
:1032F0009E1E0E94A01DB801CE010E94FB16DF9108
:10330000CF911F910F9108950E949A1F0E94AA1FAA
:103310000E94C61F0E94AC240E94062480E090E018
:103320000E94FC1380E090E00C9412148091100134
:10333000909111010E944C210C9484190E948A1FC3
:103340000C949619E92FE295EF70F0E03297EE3089
:10335000F105B0F4EA59FF4F0C94132E803F91F021
:1033600018F4883E68F40EC0843F51F40BC0883EC8
:1033700048F0813F29F406C093FB882780F908951F
:1033800080E0089581E008950E943B1F0E94A219E9
:103390000895CF93DF9300D000D01F92CDB7DEB752
:1033A0000F900F900F900F900F90DF91CF91089595
:1033B000CF93DF9300D000D000D0CDB7DEB72696F4
:1033C0000FB6F894DEBF0FBECDBFDF91CF91089549
:1033D0001F93CF93DF93C091970116E080919801DE
:1033E000C81799F0D0E01C9FF0011D9FF00D11242B
:1033F000E756FE4F408151816281738184819581BE
:103400000E94D8192196C770E9CFDF91CF911F9103
:1034100008954091C9015091CA016091CB0170910A
:10342000CC018091CD019091CE010C94D8192091BE
:1034300097019091980156E02917A9F030E0529F2A
:10344000F001539FF00D1124E756FE4F7181671371
:1034500006C07081871303C07281471306C02F5FB7
:103460003F4F2770E9CF80E0089581E00895809173
:10347000CE0182958F7009F054C08091CB018823D2
:1034800009F44FC080919701A09198016091C90102
:103490007091CA014091CC015091CD01B6E08A17DC
:1034A00009F43FC090E041155105C1F17F3F11F48F
:1034B0006F3FA1F1B89FF001B99FF00D1124E756BD
:1034C000FE4F218172132AC02081621327C02281FE
:1034D000211124C0238134812417350710F4215091
:1034E0003109241B350B2F3A3105C0F42091CE0150
:1034F0002F7020612093CE0126E0289FF001299FA4
:10350000F00D1124E256FE4F80818F708061808320
:1035100089EC91E00E945D190C94E819019687707E
:10352000BECF0895AF92BF92CF92DF92EF92FF92FB
:103530000F931F93CF93DF93CDB7DEB762970FB68C
:10354000F894DEBF0FBECDBF7C0185E0F701DE0140
:103550001D9601900D928A95E1F7D7010C91119675
:103560005C9111971296BC9012971396CD90DC90B7
:1035700014973091C9014091CA018091CC0190917A
:10358000CD01009709F47DC14F3F19F43F3F09F485
:1035900078C1A090CB01AA2009F40DC12091CE01E1
:1035A000C816D90628F0F601E81BF90BCF0104C0B4
:1035B000809590958C0D9D1D11E08F3A910588F0B6
:1035C00010E0207F09F0BEC07C2DD98AC88A402F28
:1035D0006B2D89890E94C91989EC91E00E945D19BF
:1035E00048C1822F807F09F075C0451314C0301385
:1035F00012C0B11010C02F7020612093CE010E9424
:10360000091A89EC91E00E945D198091CE01D701E1
:1036100015968C9320C0CD2809F452C05F3F19F451
:103620000F3F09F44DC0B11018C040E0652F802F46
:103630005A8B0E94171A5A89882379F089EC91E0F5
:103640000E945D19E9ECF1E086E0DF011D928A95A8
:10365000E9F70E94091A10E031C15F3F11F40F3FF2
:1036600079F1B1102DC040E0652F802F5A8B0E9458
:10367000171A182F5A89811123C00D875E878D85EF
:103680009E850E943B1F292F22952F7030E022300B
:10369000310524F02430310534F05EC09F7051F0C4
:1036A000811108C00BC19F7029F0F7019581907FAF
:1036B00009F404C190E2980F983008F04DC0FEC0A4
:1036C0001B2DBB2009F4FAC08091CE01816080934C
:1036D000CE01C1CF451308C0301306C0B11004C0DD
:1036E0008091CE01D7019DC00D875E878D859E8517
:1036F0000E94C419882381F1BB2071F12091CE0171
:10370000822F82958F7090E0029774F08091C901AA
:103710009091CA0198878F831986DB86CA862C8789
:10372000CE0107960E945D1986E0F701A9ECB1E091
:1037300001900D928A95E1F70E94371A0E94091AAA
:1037400011E0BCC0451761F00D875E878D859E85B1
:103750000E94C419811118C0C7010E945D19F0CFE1
:103760003013F2CFB110F0CF8091CE01F7018583F5
:10377000C7010E945D1986E0E9ECF1E0DF011D92CE
:103780008A95E9F71A2D9AC0BB2031F32091CE011A
:10379000822F82958F7090E0029734F28091C90158
:1037A0009091CA019A8389831B82DD82CC822E8309
:1037B000CE010196B7CFC816D90628F0F601E81B4E
:1037C000F90BCF0104C0809590958C0D9D1D8F3A0B
:1037D000910550F010E07C2DD98AC88A402F6B2DBE
:1037E00089890E94C91945C01B2DBB2009F4B4CF9B
:1037F00045132EC030132CC02091CE0120FD1FC0D8
:10380000822F82958F70D9F0D70115962C9315973A
:103810008F3049F08F5F982F9295907F822F8F7015
:10382000892B15968C93C7010E945D1986E0F701DC
:10383000A9ECB1E001900D928A95E1F73DC086E0D8
:10384000F701A9ECB1E001900D928A95E1F736C03D
:103850000D875E878D859E850E94C419811164CF76
:103860008091CE0181608093CE01C7010E945D19D5
:1038700025C0E9ECF1E086E0DF011D928A95E9F7C9
:103880001BC0BB2009F468CF0D875E878D859E85A0
:103890000E94C419182F882309F45ECF86E0F7012F
:1038A000A9ECB1E001900D928A95E1F789EC91E0E5
:1038B0000E9433150E94371A0E94091A812F6296BE
:1038C0000FB6F894DEBF0FBECDBFDF91CF911F9131
:1038D0000F91FF90EF90DF90CF90BF90AF90089541
:1038E0001F93CF93DF93CDB7DEB72C970FB6F89425
:1038F000DEBF0FBECDBF4F83588769877A878B871E
:103900009C87CE0107960E94921A882369F08F81C6
:1039100098852A853B85232BF1F19F3F09F063C0F1
:103920008F3F09F060C037C086E0FE013796DE01A8
:10393000119601900D928A95E1F76F817885EA855D
:10394000FB85309741F17F3F11F46F3F21F12091CA
:10395000980130E0C901019687709927409197013D
:1039600050E08417950709F447C069837A83FD8383
:10397000EC8396E0929FD001939FB00D1124A7563F
:10398000BE4FFE01319601900D929A95E1F780931A
:1039900098010E94E81916E0809197019091980192
:1039A0008917C1F1189FC001112487569E4F0E94AC
:1039B000921A882379F1E09197011E9FF00111245A
:1039C000E756FE4F408151816281738184819581E8
:1039D0000E94D8198091970190E0019687709927ED
:1039E00080939701D9CF4F81588569857A858B85DA
:1039F0009C850E94D819CFCF0E949E1910929801E1
:103A000010929701E9ECF1E086E0DF011D928A95C2
:103A1000E9F7C1CF2C960FB6F894DEBF0FBECDBF2D
:103A2000DF91CF911F910895EF92FF920F931F9313
:103A3000CF93DF938C01892B09F46CC0F12CEE2419
:103A4000E394E8012196F8018491843740F48430AE
:103A500008F051C0813081F0823019F15BC08537A8
:103A600009F444C0A8F19CE7980F903708F052C0C1
:103A70008F770E94721641C00E5F1F4FFE01C491E6
:103A800080E28C0F883048F4C7708E2D01C0880FFB
:103A9000CA95EAF70E949D1F14C08C2F0E94391509
:103AA0002DC00E5F1F4FFE01C49180E28C0F883045
:103AB00058F4C7708E2D01C0880FCA95EAF70E948E
:103AC000A31F0E94C61F1AC08C2F0E94721616C018
:103AD0000E5F1F4FFE01C491CC2381F08FE99FE060
:103AE0000197F1F700C00000C150F6CF0E5F1F4FE5
:103AF000FE01F49003C00E9439158E018F2D88239A
:103B000009F49FCFEFE9FFE03197F1F700C0000023
:103B10008150F5CFDF91CF911F910F91FF90EF90E2
:103B2000089508950C94911D0E94921D6093F101D7
:103B30007093F2018093F3019093F4010C94841933
:103B400008950C94941D0F931F930091F10110910F
:103B5000F2012091F3013091F401602B712B822B43
:103B6000932B1F910F910C94941D0F931F93009111
:103B7000F1011091F2012091F3013091F4016023E1
:103B80007123822393231F910F910C94941D0F9303
:103B90001F930091F1011091F2012091F3013091F6
:103BA000F40160277127822793271F910F910C94AE
:103BB000941D0C9464050E94D91D6093ED017093CF
:103BC000EE018093EF019093F0010C94841960E072
:103BD00070E0CB010C94DB1D0F931F9341E050E08C
:103BE00060E070E08A019B0104C0000F111F221FDA
:103BF000331F8A95D2F7C901B8011F910F910C9418
:103C0000DB1D0F931F9341E050E060E070E004C0C3
:103C1000440F551F661F771F8A95D2F78091ED01DB
:103C20009091EE01A091EF01B091F0018A019B010A
:103C3000082B192B2A2B3B2BC901B8011F910F917F
:103C40000C94DB1D0F931F9341E050E060E070E0A7
:103C500004C0440F551F661F771F8A95D2F7409501
:103C60005095609570958091ED019091EE01A09135
:103C7000EF01B091F0018A019B01082319232A2347
:103C80003B23C901B8011F910F910C94DB1D0F93C9
:103C90001F9341E050E060E070E004C0440F551F06
:103CA000661F771F8A95D2F78091ED019091EE0102
:103CB000A091EF01B091F0018A019B01082719271B
:103CC0002A273B27C901B8011F910F910C94DB1DD6
:103CD0000F931F930091ED011091EE012091EF01E0
:103CE0003091F001602B712B822B932B1F910F9140
:103CF0000C94DB1D0F931F930091ED011091EE01C9
:103D00002091EF013091F0016023712382239323EE
:103D10001F910F910C94DB1D0F931F930091ED01E8
:103D20001091EE012091EF013091F0016027712791
:103D3000822793271F910F910C94DB1D08952CE08F
:103D4000929F800D1124A82FA695A695A695877001
:103D500051E001C0550F8A95EAF785E0A89FD00190
:103D6000112420E030E070E0F901EA0FFB1FE1537D
:103D7000FE4F4081CB01022E02C0969587950A9492
:103D8000E2F7817099278195842785238427808392
:103D90002F5F3F4F2530310539F708952CE0929F72
:103DA000800D1124682F669566956695982F9770FB
:103DB00085E0689FB001112440E050E080E0FA0106
:103DC000E60FF71FE153FE4F208130E0092E02C0BD
:103DD000369527950A94E2F721703327042E01C007
:103DE000220F0A94EAF7822B4F5F5F4F453051054F
:103DF00031F70895BF92CF92DF92EF92FF920F9327
:103E00001F93CF93DF938C01C090F101D090F2010A
:103E1000E090F301F090F4018091ED019091EE01BA
:103E2000A091EF01B091F001C82AD92AEA2AFB2A11
:103E3000CFE1D0E0D701C6010C2E04C0B695A795FE
:103E4000979587950A94D2F780FF07C0BC2EB801DA
:103E50008C2F0E943309019719F4219758F7B12C40
:103E60008B2DDF91CF911F910F91FF90EF90DF90FD
:103E7000CF90BF900895CF93DF93EC010E94FA1E7C
:103E8000BE010E943309DF91CF9108951F93CF9314
:103E9000DF93EB0190919601992321F0CB010E94D1
:103EA0003B1F13C0882349F0CB010E94FA1E182F34
:103EB000682FCE010E949F1E04C0CB010E94CE1E1F
:103EC000182FBE01812F0E943309DF91CF911F91DE
:103ED00008958091F5018595859585950895809142
:103EE000F501877008959091F501977081E009F4CC
:103EF00080E0089580911902089590911902892B0C
:103F000080931902089580959091190289238093D6
:103F10001902089510921902089590911802892BA0
:103F200080931802089580959091180289238093B8
:103F30001802089510921802089590911702892B83
:103F4000809317020895809590911702892380939A
:103F5000170208951092170208958091F6010895AE
:103F600008950C94B01F9091F601981721F080935A
:103F7000F6010C94B11F08958091F601882329F071
:103F80001092F60180E00C94B11F0895E0911001A9
:103F9000F0911101809119028083E0911001F0915C
:103FA0001101908180911802892B8083E09110018A
:103FB000F0911101908180911702892B808380916B
:103FC000F601882381F0E0911001F09111019081B8
:103FD000892B808380911001909111010E94D12042
:103FE00081110E94BC1F80911001909111010C94CD
:103FF000D41308950C94F91F98E0899F900111241F
:10400000262B2093F5010E94011E8091F5018595D4
:10401000859585950C94FA1F1092F50180E00C941B
:10402000FA1F2091F501809582238093F501982F46
:10403000977079F430E0482F082E000C550B2417A8
:10404000350739F08595859585950E94221E0C943B
:104050000C20089580E090E00E94402E21E08C3EEC
:104060009E4F09F020E0822F089582E090E00C94AA
:10407000322E83E090E00C94322ECF9384E090E0D7
:104080000E94322EC82F81E290E00E94322E2C2F07
:1040900030E0A901582BCA01CF910895CF93C92FC1
:1040A000682F84E090E00E94462E6C2F81E290E021
:1040B000CF910C94462EAB01BC018FE090E00C94A4
:1040C000582EAB01BC0183E190E00C94582E60E0C7
:1040D00070E0CB010C94612060E070E0CB010E94A5
:1040E0005B200C9467206CEE7EEF80E090E00E94F5
:1040F000642E60E082E090E00E94462E60E083E063
:1041000090E00E94462E1092F1011092F20110925E
:10411000F3011092F40160E084E090E00E94462EEA
:1041200060E081E290E00E94462E60E085E090E051
:104130000E94462E60E086E090E00E94462E6FEFDF
:1041400087E090E00E94462E40E050E0BA0188E00F
:1041500090E00E94582E60E08DE090E00E94462E94
:1041600040E050E0BA0188E190E00E94582E60E003
:1041700087E190E00E94462E40E050E0BA018CE1D9
:1041800090E00E94582E60E080E290E00E94462E6F
:104190000C946C200C947320682F8EE090E00C94AB
:1041A000462EFC01329680912201882331F08091C5
:1041B000610287FF02C09EE101C096E080E091505D
:1041C00028F021912223D9F38F5FF9CF08959C0124
:1041D000FC0132969FEF80E04191461789F09F3FA6
:1041E00019F4411101C0982F8F5F8630A9F79F3FC6
:1041F00039F0F901E90FF11D97FDFA9562830895F1
:104200000895FC01329608962081261301C0108281
:104210003196E817F907C1F70895262F26952695B8
:1042200026952E3168F4FC01E20FF11D677021E044
:1042300030E001C0220F6A95EAF78281282B2283A1
:104240000895262F2695269526952E3170F4FC018B
:10425000E20FF11D677021E030E001C0220F6A9586
:10426000EAF7209582812823228308952091220154
:10427000222329F02091610227FD0C940D210C943A
:10428000E72020912201222329F02091610227FDBD
:104290000C9421210C94012120912201FC013296E1
:1042A000222331F08091610287FF02C08EE101C0BC
:1042B00086E0DF011D928A95E9F7089508950C9430
:1042C0005E210E945F2180916702843009F439C029
:1042D00010921B0220E488E190E00FB6F894A895B4
:1042E000809360000FBE2093600080E00E9434063F
:1042F0000E94431280911C0281110AC081E08093C8
:104300001C0280914D02817080931D020E947111E8
:104310000E945F2183B7817F846083BF83B7816000
:1043200083BF7894889583B78E7F83BF0FB6F89448
:10433000A895809160008861809360001092600071
:104340000FBE089508950895CF930E94A2210E9460
:104350002A0C0E94A321C0E08C2F0E94C10B892B44
:1043600029F4CF5FC430C1F780E001C081E0CF9174
:10437000089508950C94B9210E949E190E94C813B3
:104380000E94340610921C0280911D0281110E942D
:104390003B120E9483110C94BA211F920F920FB608
:1043A0000F9211248F939F93AF93BF9380911B0221
:1043B000811113C080915D0290915E02A0915F0215
:1043C000B09160024196A11DB11D80935D02909352
:1043D0005E02A0935F02B0936002BF91AF919F9184
:1043E0008F910F900FBE0F901F90189582E084BDA3
:1043F00093E095BD9AEF97BD80936E0008952FB717
:10440000F89480915D0290915E02A0915F02B0915C
:1044100060022FBF0895CF92DF92EF92FF920F9329
:104420001F932FB7F89440915D0250915E02609106
:104430005F02709160022FBF6A017B01EE24FF24AE
:104440008C0120E030E0C016D106E206F30610F43D
:10445000415051099A01281B390BC9011F910F9135
:10446000FF90EF90DF90CF90089578941F920F9275
:104470000FB60F9211248F939F93AF93BF938091A8
:104480005D0290915E02A0915F02B0916002019680
:10449000A11DB11D80935D0290935E02A0935F0207
:1044A000B0936002BF91AF919F918F910F900FBE1B
:1044B0000F901F90189581E08093E00080E2809338
:1044C000D8001092C9008FE19EE40197F1F700C077
:1044D000000087E090EBDC01809370029093710202
:1044E000A0937202B09373029CE088E10FB6F89437
:1044F000A895809360000FBE90936000FFCF0E944C
:104500002A20811102C00E94CA200E943520809377
:104510001A020E943D2090936202809361020E94E1
:104520003920682F70E080E090E00C94A11D80910C
:10453000210280FF0BC06091150185E0689FB001EA
:10454000112475956795759567952BC081FF09C0F6
:104550006091150185E0689FB001112475956795FC
:1045600020C082FF07C06091150185E0689FB001FF
:10457000112417C0909120029923D1F06091140169
:10458000961788F72091150185E0289F9001112446
:10459000929FA001939F500D112470E0CA010E94C8
:1045A000FF2D6038710540F46115710539F002C0C6
:1045B00065E070E0862F08958FE7089581E0089503
:1045C0008091210280FF08C06091130170E0759511
:1045D00067957595679521C081FF06C060911301AD
:1045E00070E07595679519C082FF04C06091130152
:1045F00070E010C0909120029923C1F060911201E7
:104600009617A0F780911301899FC001112470E0D3
:104610000E94FF2D6038710528F46115710521F0A5
:10462000862F08958FE7089581E0089561E070E096
:10463000F4CF803F21F40E949722819504C0813FEE
:1046400029F40E949722809325020895823F21F445
:104650000E949722819504C0833F29F40E949722EB
:10466000809324020895893F19F40E94E02205C036
:104670008A3F31F40E94E0228195809326020895BA
:104680008B3F21F40E94E022819504C08C3F29F4E5
:104690000E94E022809327020895843F21F48091B4
:1046A0002302816017C0853F21F48091230282603C
:1046B00011C0863F21F48091230284600BC0873FA4
:1046C00021F480912302886005C0883F31F48091F5
:1046D000230280618093230208958D3F21F480910D
:1046E000210281600BC08E3F21F480912102826003
:1046F00005C08F3F29F480912102846080932102BC
:104700000895803F39F48091250287FF6CC0109294
:10471000250269C0813F29F4809125021816BCF357
:1047200062C090912402823F29F497FF5CC01092EE
:10473000240259C0833F19F41916CCF354C0893FA1
:1047400041F48091260218160CF04DC010922602FA
:104750004AC08A3F29F48091260287FF44C0F6CFE1
:104760008B3F39F48091270287FF3DC010922702CA
:104770003AC08C3F29F4809127021816BCF333C04D
:10478000843F21F4809123028E7F17C0853F21F45E
:10479000809123028D7F11C0863F21F480912302F6
:1047A0008B7F0BC0873F21F480912302877F05C058
:1047B000883F31F4809123028F7E8093230213C0BF
:1047C0008D3F21F4809121028E7F0BC08E3F21F41A
:1047D000809121028D7F05C08F3F29F480912102B5
:1047E0008B7F809321028091240281110EC08091E1
:1047F000250281110AC080912602811106C0809194
:104800002702811102C010922002089582E292E0F4
:104810000E94EE130E94FF2190931F0280931E02BC
:1048200008951F93CF93DF9380911E0290911F02F2
:104830000E940B22AC0190912002992321F020913B
:10484000160130E006C0209117018AE0289F9001F0
:1048500011244217530708F47BC080912402C091B1
:104860002502D091260210912702811107C0C111A3
:104870006BC0D11169C0111167C06AC09F3F19F0A8
:104880009F5F90932002181624F40E949722809331
:1048900024028091240287FF05C00E9497228195FF
:1048A000809324021C1624F40E94972280932502F0
:1048B0008091250287FF05C00E94972281958093F1
:1048C0002502309124023323E1F020912502222396
:1048D000C1F045EB3403C0011124892F990F990BC6
:1048E000009709F481E08093240235EB2303C00193
:1048F0001124892F990F990B009709F481E0809377
:1049000025021D1624F40E94E02280932602809145
:10491000260287FF05C00E94E0228195809326022F
:10492000111624F40E94E02280932702809127022E
:1049300087FF05C00E94E022819580932702DF91C6
:10494000CF911F910C9406249F3F09F099CFA1CFDE
:10495000DF91CF911F910895E2E2F2E086E0DF015E
:104960001D928A95E9F71092200210922102089573
:10497000833081F128F4813059F08230D1F00895EC
:10498000853009F449C0B8F1863009F456C008955D
:1049900080911701262F30E0280F311D2F3F310560
:1049A00024F4680F6093170108958FEF8093170127
:1049B000089580911601262F30E0280F311D2F3FDA
:1049C000310524F4680F6093160108958FEF8093EA
:1049D0001601089580911501262F30E0280F311D12
:1049E0002F3F310524F4680F6093150108958FEF70
:1049F00080931501089580911401262F30E0280F2F
:104A0000311D2F3F310524F4680F60931401089580
:104A10008FEF80931401089580911301262F30E0C9
:104A2000280F311D2F3F310524F4680F60931301C7
:104A300008958FEF80931301089580911201262F1E
:104A400030E0280F311D2F3F310524F4680F6093AB
:104A5000120108958FEF809312010895833011F1B0
:104A600028F4813049F0823091F00895853081F149
:104A700020F18630C1F1089580911701681720F464
:104A8000861B809317010895109217010895809155
:104A90001601681720F4861B809316010895109262
:104AA0001601089580911501681720F4861B8093E4
:104AB0001501089510921501089580911401681749
:104AC00020F4861B80931401089510921401089518
:104AD00080911301681720F4861B809313010895B9
:104AE00010921301089580911201681720F4861B1B
:104AF0008093120108951092120108950F931F934D
:104B0000482F50E0FA013597EF33F10508F07FC0E8
:104B1000EC58FF4F0C94132E0E94CA2071C0809154
:104B20001A02817F8E7F80931A0281E0809329028E
:104B30006FC00E949E190FEF13ED20E3015010404B
:104B40002040E1F700C000000E945B2259C0809124
:104B50001A02982F9095917090FB80F980931A0219
:104B600091114EC0897F877F10C080911A0281FB0E
:104B7000222720F991E0922790FB81F980931A0275
:104B80009923F1F180911A02816080931A0238C052
:104B900080911A0282FB222720F991E0922790FB54
:104BA00082F9ECCF80911A0283FB222720F991E051
:104BB000922790FB83F9E2CF0E949E1980916102B7
:104BC00087FB222720F991E0922790FB87F98093B9
:104BD000610216C0895301C08D5141E050E060E090
:104BE00070E08A019B0104C0000F111F221F331FB8
:104BF0008A95D2F7C901B8010E94A11D0E949E1991
:104C000081E006C061E070E080E090E0F5CF80E0F8
:104C10001F910F91089580E0089580E008958E51CE
:104C20008A3030F4E82FF0E0E85AFE4F8081089592
:104C300080E00895CF93C82F80912902813069F0D8
:104C400018F08230C9F183C0E0911001F091110198
:104C50008081823209F07DC007C0E0911001F0919F
:104C600011018081823261F48C2F0E940B26811108
:104C700004C08C2F0E947E251DC081E090E01AC0E8
:104C80008C2F0E940D26811114C0C43179F048F494
:104C9000CB3079F0C03109F060C082E08093290206
:104CA00008C0C93219F0C83321F057C01092290248
:104CB00054C081E0817053C0C93289F118F5C43104
:104CC00071F1B0F4C73009F046C08EE1809317014E
:104CD00082E3809316018AE08093150184E180933A
:104CE000140188E08093130188E28093120133C09D
:104CF00082EE8C0F863078F58C2F0E940F268093E1
:104D0000280229C0CE34E9F020F4CB3421F56AE042
:104D100013C0C13579F0C235F1F461E00DC0809166
:104D20002802882319F01092280215C081E0809390
:104D3000290215C061E006C0809128020E94B824B3
:104D40000AC06AE0809128020E942E2504C01092B9
:104D5000290280E004C081E002C080E0ABCFCF91A7
:104D6000089580914A0208950F931F93CF93DF9384
:104D700000D01F92CDB7DEB78C010E94242982306B
:104D800011F0843021F584E089831B830A8382E05B
:104D90008093E9008FEF9091E800815095FD06C067
:104DA00095ED9A95F1F700008111F5CF8091E8001B
:104DB00085FF0DC040E050E063E070E0CE01019659
:104DC0000E9441298091E8008E778093E8000F903F
:104DD0000F900F90DF91CF911F910F910895CF9376
:104DE000DF9300D01F92CDB7DEB720916702243049
:104DF00031F523E02983805891099B838A8382E0DF
:104E00008093E9008FEF9091E800815095FD06C0F6
:104E100095ED9A95F1F700008111F5CF8091E800AA
:104E200085FF0DC040E050E063E070E0CE010196E8
:104E30000E9441298091E8008E778093E8000F90CE
:104E40000F900F90DF91CF910895CF93DF93EC01F6
:104E50000E942429823011F08430F9F482E080939A
:104E6000E9009FEF8091E800915085FD06C085ED37
:104E70008A95F1F700009111F5CF8091E80085FF48
:104E80000CC040E050E066E070E0CE010E94412995
:104E90008091E8008E778093E800DF91CF910895AC
:104EA000CF93DF93EC010E942429823011F08430EB
:104EB000D9F580912201882339F08091610287FF22
:104EC00003C060E282E002C068E081E08093E90014
:104ED0008FEF9091E800815095FD06C095ED9A9571
:104EE000F1F700008111F5CF8091E80085FF1CC02B
:104EF00080912201811105C040E050E068E070E03F
:104F000003C070E040E050E0CE010E944129809152
:104F1000E8008E778093E80080E2FE01AAE2B2E02A
:104F200001900D928A95E1F7DF91CF9108958091DC
:104F30006602811109C00E94D62A0E94332B8091FB
:104F4000E20084608093E200089510926602089562
:104F5000089508950C94BC2142E061EC81E00E9428
:104F6000502A42E261EC82E00C94502A809169025E
:104F7000833009F460C030F4813071F0823009F47C
:104F800099C008958A3009F485C08B3009F46BC04C
:104F9000893009F0A7C020C080916802813A09F0E9
:104FA000A1C08091E800877F8093E80080916C0227
:104FB00090916D02892B21F460E28AE292E003C0B5
:104FC00060E080E090E070E00E948C298091E80031
:104FD0008B778093E800089580916802813209F010
:104FE00081C080916C0290916D02029708F07AC0A6
:104FF0008091E800877F8093E8008091E80082FD3F
:1050000005C0809167028111F8CF6CC02091F30038
:105010008091F20090E0922B029729F48091F100A8
:105020008B7F813021F48091F10080934A0280913E
:10503000E8008B7753C080916802813A09F052C032
:1050400080916C0290916D02892B09F04BC0809188
:10505000E800877F8093E8008091E80080FFFCCF24
:105060008091220136C0809168028132D9F5809109
:105070006C0290916D02892BA9F58091E800877FE1
:105080008093E8000E94852A80916A028093220121
:105090000C949E1980916802813221F58091E8007C
:1050A000877F8093E8000E94852A80916B0280931D
:1050B0004B02089580916802813AA1F48091E80042
:1050C000877F8093E8008091E80080FFFCCF80918B
:1050D0004B028093F1008091E8008E778093E80086
:1050E0000C94852A089584B7877F84BF0FB6F894FF
:1050F000A8958091600088618093600010926000A4
:105100000FBE80E880936100109261000E94351408
:105110000E94D62A0E94332B8091E2008460809303
:10512000E20078940E94C22D0E943D1488E191E033
:105130000E94C31380916702853069F40E94612147
:10514000809165028823B1F30E94A421882391F302
:105150000E942B29EFCF0E9447140E944612EACFEB
:105160000C94B228292F332723303105C9F064F479
:105170002130310581F02230310509F04CC08BE33C
:1051800090E02BEF37E04BC02132310521F1223284
:10519000310589F140C082E190E026E338E03FC06C
:1051A00099278130910571F02CF4892BA1F5E7EF57
:1051B000F7E00DC08230910541F0039761F5EBEB0C
:1051C000F7E005C0E3EDF7E002C0E1ECF7E0849121
:1051D00090E09F0124C06115710541F061307105B7
:1051E000D1F489E090E026E238E019C089E090E04F
:1051F0002DE038E014C06115710541F06130710592
:1052000051F480EC90E028E438E009C080E490E0BC
:1052100028E039E004C080E090E020E030E0FA01CE
:105220003183208308950895CF93C82F0E941329B6
:10523000C0934C02CF91089580916702843011F0A1
:1052400081E0089582E0089580914C02811102C0AE
:105250000C941C29089580E189BD82E189BD09B4BF
:1052600000FEFDCF8091D8008F7D8093D800809183
:10527000E00082608093E0008091E00081FDFCCF3F
:105280000895CF92DF92EF92FF920F931F93CF93E7
:10529000DF93EC018B016A010E94A42A811133C0C3
:1052A000C114D10439F0F60180819181081B190BDA
:1052B000C80FD91FE12CF12C0115110519F18091AE
:1052C000E80085FD16C08091E8008E778093E800A5
:1052D000C114D10449F0F60180819181E80EF91ED4
:1052E000F182E08285E00FC00E94A42A882321F386
:1052F0000AC089918093F10001501109FFEFEF1A64
:10530000FF0ADACF80E0DF91CF911F910F91FF90DC
:10531000EF90DF90CF90089520916E0230916F0250
:105320002617370748F06115710539F42091E80018
:105330002E772093E80001C0B90140E061157105A6
:10534000A9F120916702222309F443C0253009F412
:1053500042C02091E80023FD40C02091E80022FDDA
:1053600032C02091E80020FFE9CF4091F300209166
:10537000F20030E0342BFC01CF016115710559F0CA
:105380002830310540F481918093F100615071091A
:105390002F5F3F4FF1CF41E02830310509F040E069
:1053A0002091E8002E772093E800C8CF4111C9CFA3
:1053B0000AC080916702882361F0853061F0809196
:1053C000E80083FD0AC08091E80082FFF2CF80E010
:1053D000089582E0089583E0089581E00895209182
:1053E0006E0230916F022617370748F0611571057C
:1053F00039F42091E8002E772093E80001C0B9012C
:10540000FC0120E06115710591F18091670288230C
:1054100009F440C0853009F43FC08091E80083FD65
:105420003DC08091E80082FD2FC08091E80080FFA0
:10543000E9CF2091F3008091F20090E0922B61156A
:10544000710559F08830910540F424912093F100C2
:105450003196615071090196F2CF21E0089709F069
:1054600020E08091E8008E778093E800CBCF211177
:10547000CCCF0AC080916702882361F0853061F04B
:105480008091E80083FD0AC08091E80082FFF2CF9E
:1054900080E0089582E0089583E0089581E0089512
:1054A000982F973058F59093E900981739F070913C
:1054B000EC002091ED005091F00003C0242F762FD6
:1054C00050E021FF19C03091EB003E7F3093EB009C
:1054D0003091ED003D7F3093ED003091EB00316075
:1054E0003093EB007093EC002093ED005093F000AC
:1054F0002091EE0027FF07C09F5FD3CF8F7080936E
:10550000E90081E0089580E008958091680287FFB6
:1055100011C08091E80082FD05C080916702811171
:10552000F8CF11C08091E8008B770BC080916702A3
:10553000882349F08091E80080FFF8CF8091E8004F
:105540008E778093E80008952091E4003091E50083
:1055500095E64091EC00842F817040FF22C080913D
:10556000E80080FD1CC080916702882391F085309F
:1055700091F08091EB0085FD10C04091E4005091C6
:10558000E5004217530729F39A01915011F784E07F
:10559000089582E0089583E0089581E0089580E011
:1055A00008954091E80042FFDECF08950E94442B09
:1055B0000E944C2BE0EEF0E0808181608083E8ED7A
:1055C000F0E080818F77808319BCA7EDB0E08C91EB
:1055D0008E7F8C9380818F7E8083109266020895E7
:1055E0000F931F93CF93DF930E94442B0E944C2B69
:1055F000C8EDD0E088818F77888388818068888330
:1056000088818F7D888319BC109267021092630293
:10561000109265021092640200EE10E0F8018081A1
:105620008B7F808388818160888342E060E080E0B6
:105630000E94502AE1EEF0E080818E7F8083E2EECE
:10564000F0E0808181608083808188608083F801C0
:1056500080818E7F8083888180618883DF91CF9174
:105660001F910F910895E8EDF0E080818F7E808397
:10567000E7EDF0E080818160808384E082BF81E09B
:10568000809366020C94F02AE8EDF0E080818E7F32
:1056900080831092E20008951092DA001092E100E7
:1056A00008951F920F920FB60F9211242F933F93DC
:1056B0004F935F936F937F938F939F93AF93BF931A
:1056C000EF93FF938091E10082FF0BC08091E20095
:1056D00082FF07C08091E1008B7F8093E1000E94F0
:1056E000C12D8091DA0080FF1FC08091D80080FF1B
:1056F0001BC08091DA008E7F8093DA008091D90000
:1057000080FF0DC080E189BD82E189BD09B400FE42
:10571000FDCF81E0809367020E94972705C019BCE6
:10572000109267020E94A5278091E10080FF19C0B6
:105730008091E20080FF15C08091E2008E7F80930F
:10574000E2008091E20080618093E2008091D800C5
:1057500080628093D80019BC85E0809367020E9424
:10576000A9278091E10084FF30C08091E20084FF8E
:105770002CC080E189BD82E189BD09B400FEFDCF66
:105780008091D8008F7D8093D8008091E1008F7E3A
:105790008093E1008091E2008F7E8093E20080910F
:1057A000E20081608093E20080916302882311F01F
:1057B00084E007C08091E30087FD02C081E001C062
:1057C00083E0809367020E94AA278091E10083FF13
:1057D00029C08091E20083FF25C08091E100877F8E
:1057E0008093E10082E080936702109263028091CF
:1057F000E1008E7F8093E1008091E2008E7F8093B4
:10580000E2008091E20080618093E20042E060E08B
:1058100080E00E94502A8091F00088608093F00020
:105820000E94A827FF91EF91BF91AF919F918F9117
:105830007F916F915F914F913F912F910F900FBE8C
:105840000F901F9018951F920F920FB60F92112470
:105850002F933F934F935F936F937F938F939F9378
:10586000AF93BF93CF93DF93EF93FF93C091E90082
:10587000CF708091EC00D82FD17080FDD0E81092CD
:10588000E9008091F000877F8093F00078940E9477
:10589000672C1092E9008091F00088608093F000FE
:1058A000CD2BCF70C093E900FF91EF91DF91CF91A5
:1058B000BF91AF919F918F917F916F915F914F9128
:1058C0003F912F910F900FBE0F901F9018951F932F
:1058D000CF93DF93CDB7DEB7AA970FB6F894DEBFAC
:1058E0000FBECDBFE8E6F2E088E08E0F9091F100A8
:1058F00091938E13FBCF0E94B6278091E80083FF1F
:1059000028C18091680290916902492F50E04A3085
:10591000510508F01EC1FA01ED54FF4F0C94132EEF
:10592000803821F0823809F014C108C080916402E7
:1059300090916502992389F082600FC080916C027A
:105940008F70873008F005C18093E9008091EB00EB
:1059500085FB882780F91092E9009091E800977FF5
:105960009093E8008093F1001092F100D0C0282FAE
:105970002D7F09F0EEC0882319F0823061F0E9C074
:1059800080916A02813009F0E4C0933009F080E030
:10599000809365022EC080916A0281112AC0809195
:1059A0006C028F702FEF280F263008F0D2C0809342
:1059B000E9002091EB0020FF1CC0933021F480917E
:1059C000EB00806214C09091EB0090619093EB002B
:1059D00021E030E0A90102C0440F551F8A95E2F78B
:1059E0004093EA001092EA008091EB008860809377
:1059F000EB001092E9008091E800877F8093E80037
:105A00000E94852AA6C08111A4C010916A021F7746
:105A10008091E3008078812B8093E3008091E800FF
:105A2000877F8093E8000E94852A8091E80080FFAC
:105A3000FCCF8091E30080688093E300111102C0E5
:105A400082E001C083E08093670283C08058823087
:105A500008F07FC080916A0290916B028C3D53E008
:105A6000950779F583E08A838AE289834FB7F894B2
:105A7000DE01139620E03EE051E2E32FF0E0509388
:105A80005700E49120FF03C0E295EF703F5FEF7095
:105A90008E2F90E0EA3010F0C79601C0C0968D932B
:105AA0009D932F5F243149F74FBF8091E800877F96
:105AB0008093E8006AE270E0CE0101960E948C2992
:105AC00015C060916C0270916D02AE014F5F5F4F27
:105AD0000E94B028BC01892BE1F19091E800977FEA
